:060000000A128A11C32F51
:10000A00F4000030F8000030F7000030F6006430E9
:10001A00F500831203138810081474088700081562
:10002A000130F0000030F1000030F2000030F3003F
:10003A007008F5027108031C710F24282528F6029E
:10004A007208031C720F2A282B28F7027308031C54
:10005A00730F30283128F802750A031D1528760A0D
:10006A00031D1528770A031D1528780A031D15286C
:10007A008312031308110030F8000030F700003033
:10008A00F6006430F5000130F0000030F100003075
:10009A00F2000030F3007008F5027108031C710FBA
:1000AA0057285828F6027208031C720F5D285E282A
:1000BA00F7027308031C730F63286428F802750A91
:1000CA00031D4828760A031D4828770A031D482875
:1000DA00780A0319080048280A168A116A270A1298
:1000EA008A11831203138F018E010C102E088316B6
:1000FA000313E900831203132D0883160313E80080
:10010A0085308312031390000130EB000030EC00BD
:10011A0083160317C401C5010A168A11DD270A12BC
:10012A008A11003083120313AF000030B00001308F
:10013A00B1000030B2006B08A0006C08A100A20157
:10014A00A3010030A7000030A600C330A50050303C
:10015A00A4000A128A15BB210A128A1183120313F8
:10016A002009B3002109B4002209B5002309B60009
:10017A00B30A0319B40A0319B50A0319B60A3308EC
:10018A00AF0734080318340FCB28CC28B00735083A
:10019A000318350FD128D228B10736080318360AB2
:1001AA00B207320883160313E100831203133108DE
:1001BA0083160313E0008312031330088316031314
:1001CA00DF00831203132F0883160313DE005E0871
:1001DA0083120313AF00831603135F0883120313FA
:1001EA00B00083160313600883120313B100831649
:1001FA000313610883120313B20008300310B20C10
:10020A00B10CB00CAF0CFF3E031D03292F088F0061
:10021A00831603135E08831203138E0000308316BD
:10022A000317BF000030BE000030BD000030BC0024
:10023A00C201C3010800013083160317C20703185D
:10024A00C30A0030C30742180800C201C3010130C3
:10025A0083160313E4020030031CE503E502831648
:10026A00031736033704031D892902303006310487
:10027A00031D89290330FA000030FB000130FC001D
:10028A000030FD000A128A156C210A128A112130E7
:10029A000A168A11A0270A128A1104308316031338
:1002AA0066066704031D6C290330FA000030FB0060
:1002BA000630FC000030FD000A128A156C210A1271
:1002CA008A1117300A168A11A0270A128A110330D6
:1002DA00FA000030FB000B30FC000030FD000A126F
:1002EA008A156C210A128A1112300A168A11A0275D
:1002FA000A128A11043083160317B0000030B100C5
:10030A000330B0000030B10036033704031DE5297D
:10031A00033030063104031DE5290330FA000030AA
:10032A00FB000330FC000030FD000A128A156C2124
:10033A000A128A11033083120313AD000030AE0093
:10034A0083160313640883120313AF00831603137F
:10035A00650883120313B000B101B2010A128A15AB
:10036A00DC250A128A110430831603136606670411
:10037A00031DE5290330FA000030FB000930FC00B8
:10038A000030FD000A128A156C210A128A11023005
:10039A0083120313AD000030AE0083160313620804
:1003AA0083120313AF008316031363088312031324
:1003BA00B000B101B2010A128A15DC250A128A11AB
:1003CA008316031364086504031D08007930831239
:1003DA000313DF005F0883160313EC000800A42F41
:1003EA007930831603136A06031D08000F30E400F0
:1003FA000030E500793083120313DF005F088316AB
:10040A000313ED00013083120313AD000030AE0078
:10041A000A128A117120013083160313E600003094
:10042A00E7006E3083120313DF005F08831603139D
:10043A00EA000800C401C5010030F600F7000A12FC
:10044A008A151B220A128A11790883160313A3003C
:10045A007808A2007708A1007608A0002308831272
:10046A000313B00083160313220883120313AF0089
:10047A0083160313210883120313AE008316031392
:10048A00200883120313AD00D830DF005F08B100E3
:10049A00C630E0006008B2000A128A15E0230A1288
:1004AA008A110130FA000030FB000330FC000030F2
:1004BA00FD000A128A156C210A128A11033083126E
:1004CA000313AD000030AE008316031358088312DD
:1004DA000313AF0083160313590883120313B000E2
:1004EA00B101B2010A128A15DC250A128A110130F9
:1004FA00FA000030FB000730FC000030FD000A1251
:10050A008A156C210A128A11013083120313AD0075
:10051A000030AE0083160313460883120313AF009C
:10052A0083160313470883120313B000B101B20103
:10053A000A128A15DC250A128A110030831603135F
:10054A0059021930031958020318C62A6E30831249
:10055A000313DF005F0883160313ED0083120313EE
:10056A0086177930DF005F0883160313EE000A1638
:10057A008A116A27063083160313E6000030E70063
:10058A00080079306C06031DE02A0A168A116A27C8
:10059A006E3083120313DF005F0883160313ED0026
:1005AA008312031386140812063083160313E60017
:1005BA000030E7000800831203130816E830F00041
:1005CA000330F1000A168A115D270A128A110330D4
:1005DA0083160313C4000030C5000330F600003050
:1005EA00F7000A128A151B220A128A117908831641
:1005FA000313AF007808AE007708AD007608AC00A8
:10060A002F0883120313A300831603132E088312E1
:10061A000313A200831603132D0883120313A100E8
:10062A00831603132C0883120313A0000030A700BB
:10063A000030A6000230A5000030A4000030A80057
:10064A00A900CC30DF005F08AA00B830E0006008DB
:10065A00AB000A128A1585240A128A110230FA009E
:10066A000030FB000330FC000030FD000A128A153E
:10067A006C210A128A11043083120313AD00003070
:10068A00AE00831603134F0883120313B2008316B6
:10069A0003134E0883120313B100831603134D0884
:1006AA0083120313B000831603134C088312031337
:1006BA00AF000A128A15DC250A128A11831603135F
:1006CA004F08031D742B4E08031D742B4D08031D80
:1006DA00742B64304C02031D722B031C08006E300D
:1006EA0083120313DF005F0883160313ED008312DE
:1006FA00031308120A168A116A270A128A1102308B
:10070A0083160313E6000030E700793083120313DF
:10071A00DF005F0883160313ED000F30E40000309A
:10072A00E500023083120313AD000030AE000A1256
:10073A008A1171200A128A110430FA000030FB0073
:10074A000430FC000030FD000A128A156C210A12DE
:10075A008A112D300A168A11A0270800E830F00005
:10076A000330F1000A168A115D270A128A11013034
:10077A0083160313C4000030C5000130F6000030B0
:10078A00F7000A128A151B220A128A11790883169F
:10079A000313A7007808A6007708A5007608A40026
:1007AA00270883120313B000831603132608831243
:1007BA000313AF0083160313250883120313AE0035
:1007CA0083160313240883120313AD00DA30DF0003
:1007DA005F08B100C830E0006008B2000A128A154A
:1007EA00E0230A128A110130FA000030FB000930B6
:1007FA00FC000030FD000A128A156C210A128A11C7
:10080A00033083120313AD000030AE0083160313C6
:10081A005A0883120313AF00831603135B0883126B
:10082A000313B000B101B2010A128A15DC250A12BB
:10083A008A110130FA000030FB000D30FC00003054
:10084A00FD000A128A156C210A128A1101308312DC
:10085A000313AD000030AE00831603134808831259
:10086A000313AF0083160313490883120313B0005E
:10087A00B101B2010A128A15DC250A128A11003066
:10088A00831603135B02193003195A020318622CE8
:10089A006E3083120313DF005F0883160313ED0023
:1008AA008312031306150A168A116A27063083165D
:1008BA000313E6000030E700080079306C06031DD8
:1008CA007C2C6E3083120313DF005F088316031338
:1008DA00ED000A168A116A278312031386158812F5
:1008EA00063083160313E6000030E700080083127F
:1008FA0003138816E830F0000330F1000A168A1153
:10090A005D270A128A110C3083160313C4000030C3
:10091A00C5000C30F6000030F7000A128A151B22B7
:10092A000A128A11790883160313B3007808B200F1
:10093A007708B1007608B000330883120313A300C6
:10094A0083160313320883120313A20083160313B8
:10095A00310883120313A10083160313300883128C
:10096A000313A0000030A7000030A6000230A50043
:10097A000030A4000030A800A900D030DF005F08D2
:10098A00AA00BC30E0006008AB000A128A15852470
:10099A000A128A110230FA000030FB000830FC000B
:1009AA000030FD000A128A156C210A128A110430DD
:1009BA0083120313AD000030AE00831603135308ED
:1009CA0083120313B200831603135208831203130C
:1009DA00B10083160313510883120313B000831660
:1009EA000313500883120313AF000A128A15DC2579
:1009FA000A128A11831603135308031D102D520875
:100A0A00031D102D5108031D102D64305002031DC3
:100A1A000E2D031C08006E3083120313DF005F08DB
:100A2A0083160313ED008312031388120A168A1120
:100A3A006A270A128A11033083160313E60000306C
:100A4A00E700793083120313DF005F08831603136C
:100A5A00ED000F30E4000030E50003308312031389
:100A6A00AD000030AE000A128A1171200A128A11F2
:100A7A000430FA000030FB000730FC000030FD00B3
:100A8A000A128A156C210A128A1124300A168A114E
:100A9A00A0270800E830F0000330F1000A168A1196
:100AAA005D270A128A11023083160313C40000302C
:100ABA00C5000230F6000030F7000A128A151B2220
:100ACA000A128A11790883160313AB007808AA0060
:100ADA007708A9007608A8002B0883120313B00030
:100AEA00831603132A0883120313AF008316031312
:100AFA00290883120313AE008316031328088312EE
:100B0A000313AD00DC30DF005F08B100CA30E0003B
:100B1A006008B2000A128A15E0230A128A1101300B
:100B2A00FA000030FB000F30FC000030FD000A1212
:100B3A008A156C210A128A11033083120313AD003D
:100B4A000030AE00831603135C0883120313AF0050
:100B5A00831603135D0883120313B000B101B201B7
:100B6A000A128A15DC250A128A110130FA000030AD
:100B7A00FB001330FC000030FD000A128A156C21BC
:100B8A000A128A11013083120313AD000030AE003D
:100B9A00831603134A0883120313AF008316031341
:100BAA004B0883120313B000B101B2010A128A156D
:100BBA00DC250A128A110030831603135D021930EC
:100BCA0003195C020318FC2D8312031306166E30F8
:100BDA00DF005F0883160313ED000A168A116A27DD
:100BEA00063083160313E6000030E7000800793068
:100BFA006C06031D162E6E3083120313DF005F0886
:100C0A0083160313ED000A168A116A278312031347
:100C1A0086160813063083160313E6000030E70031
:100C2A000800831203130817E830F0000330F100BC
:100C3A000A168A115D270A128A11043083160313D1
:100C4A00C4000030C5000430F6000030F7000A1274
:100C5A008A151B220A128A11790883160313B70010
:100C6A007808B6007708B5007608B400370883120A
:100C7A000313A30083160313360883120313A20077
:100C8A0083160313350883120313A1008316031373
:100C9A00340883120313A0000030A7000030A60016
:100CAA000230A5000030A4000030A800A900D4300A
:100CBA00DF005F08AA00C030E0006008AB000A123B
:100CCA008A1585240A128A110230FA000030FB00C4
:100CDA000D30FC000030FD000A128A156C210A1240
:100CEA008A11043083120313AD000030AE0083165C
:100CFA000313570883120313B2008316031356080B
:100D0A0083120313B10083160313550883120313C6
:100D1A00B00083160313540883120313AF000A1298
:100D2A008A15DC250A128A11831603135708031D34
:100D3A00AA2E5608031DAA2E5508031DAA2E643092
:100D4A005402031DA82E031C080083120313081360
:100D5A006E30DF005F0883160313ED000A168A114E
:100D6A006A270A128A11043083160313E600003038
:100D7A00E700013083160317C0000030C100831258
:100D8A000313091089140A3083160313E400003090
:100D9A00E5000330E2000030E300793083120313E8
:100DAA00DF005F0883160313ED0004308312031378
:100DBA00AD000030AE000A128A1171200A128A119F
:100DCA000430FA000030FB000A30FC000030FD005D
:100DDA000A128A156C210A128A1127300A168A11F8
:100DEA00A02708007930831603136C06031D080038
:100DFA005E2F023083160317C0000030C1000C308A
:100E0A0083160313E4000030E50083120313091468
:100E1A0089106E30DF005F0883160313EC000800A8
:100E2A0001300313E2020030031CE303E302620809
:100E3A0063040319392F013083160317C0000030E9
:100E4A00C1000A3083160313E4000030E5006E3057
:100E5A0083120313DF005F0883160313EC00831267
:100E6A0003130910891408000A168A116A276E30BA
:100E7A0083120313DF005F0883160313ED00831246
:100E8A000313091089100617053083160313E600A9
:100E9A000030E700033083160317C0000030C1009A
:100EAA00793083120313DF005F0883160313EE0001
:100EBA000800831603174108003A0319652FC22F49
:100ECA004008013A0319FE2E033A0319152FC22FBF
:100EDA0008000313E601E701793083120313DF00E8
:100EEA005F0883160313EE00013083160317AA0066
:100EFA000030AB000430FA000030FB001330FC0075
:100F0A000030FD000A128A156C210A128A112A3051
:100F1A000A168A11A027080083160313E601E701BF
:100F2A00793083120313DF005F0883160313EE0080
:100F3A00013083160317AA000030AB00080083169D
:100F4A0003136708003A0319AB2FC22F6608003A49
:100F5A000319F529013A03191F2A033A0319B32B76
:100F6A00013A03194F2D073A0319F72E013A0319CB
:100F7A006E2F033A0319912FC22F08008317BC3032
:100F8A00FD000830FE003E30FF00903084000A1653
:100F9A008A117B270A128A118313EF30FD0017305A
:100FAA00FE005130FF00EB3084000A168A117B27BD
:100FBA000A128A116D30FD000830FE003A30FF0037
:100FCA00693084000A168A117B270A128A1183174C
:100FDA00BC308400C6300A168A1155270A128A11B3
:100FEA008313DE308400EB300A168A1155278301F9
:100FFA000A128A15EC2A08308A000408840A820731
:10100A000034523445345634003446345734443468
:10101A0000344F34463446340034203456346F3466
:10102A006C34003420344D343A34203400342034C3
:10103A0043343A34003456343A34003452343A346D
:10104A00003454343A34003453344134003457347D
:10105A00413400344F344B34003443344D3400347B
:04106A0025340034F5
:101074008034003401340034303431343234333485
:1010840034343534363437343834393441344234F2
:1010940043344434453446343034313432343334D4
:1010A4003434353436343734383439340134003454
:1010B4000134003401340034023400340234003486
:1010C4000134003401340034013400340034003479
:1010D4000A168A116A270A128A15831203138613C1
:1010E4008610061186110612861206137930A400A2
:1010F400240883160313EE006E3083120313A40036
:10110400240883160313EC006E3083120313A40027
:10111400240883160313ED00E601E7010130F00013
:101124000030F1000A128A1581220A128A150A1265
:101134008A155C23023083160317B0000030B10017
:1011440008003030F0000030F1000A128A158122C4
:101154000A128A153030F0000030F1000A128A15A4
:1011640081220A128A153030F0000030F1000A1290
:101174008A1581220A128A153830F0000030F100F5
:101184000A128A1581220A128A150130F0000030F1
:10119400F1000A128A1581220A128A150E30F00013
:1011A4000030F1000A128A1581220A128A150630CB
:1011B400F0000030F1000A128A1581220800003084
:1011C400FC000030FB000030FA000030F900701C15
:1011D400FF287408F907750803110318013E031D5D
:1011E400FA07760803110318013E031DFB0777086D
:1011F40003110318013E031DFC070130F80003101E
:10120400F40DF50DF60DF70DF80B0129013003105F
:10121400F30CF20CF10CF00CFF3E031D09297308CA
:10122400720471047004031DE9287C08F3007B0830
:10123400F2007A08F1007908F000080073087204DB
:101244007104700403196329F901F90AF31B38299D
:101254000130F8000310F00DF10DF20DF30DF80B51
:101264002C290130F8007808F90728297308770237
:10127400031D462972087602031D4629710875026A
:10128400031D462970087402031C56297008F402D1
:101294007108031C710FF5027208031C720FF60229
:1012A4007308031C730FF70201300310F30CF20CE4
:1012B400F10CF00CFF3E031D57290130F902031D08
:1012C40038297708F3007608F2007508F1007408ED
:1012D400F00008007A08FF3E83120313A0007B0885
:1012E4000318013EFF3EA1007C08FF3EA2007D08DA
:1012F4000318013EFF3EA30000307B0205300319B2
:101304007A020318080000307D02153003197C02AC
:1013140003180800982980309429C0309429943007
:101324009429D430E9000030EA00AB297B08003A64
:1013340003199D29AB297A08013A03198D29033A27
:1013440003198F29013A03199129073A031993299B
:10135400AB2922086907E90023080318230A6A074E
:10136400EA006A08F1006908F0000A128A1581226D
:101374000800003083120313AB000030AA000030D1
:10138400A9000030A8002308220421042004031922
:10139400122AAC01AC0AA31BDD290130FD000310A5
:1013A400A00DA10DA20DA30DFD0BD1290130FD004F
:1013B4007D08AC07CD290130FD000310A80DA90D4F
:1013C400AA0DAB0DFD0BDF2923082702031DF42909
:1013D40022082602031DF42921082502031DF429ED
:1013E40020082402031C052A2008A4022108031C47
:1013F400210FA5022208031C220FA6022308031CA6
:10140400230FA702281401300310A30CA20CA10C73
:10141400A00CFF3E031D062A0130AC02031DDD298A
:101424002B08A3002A08A2002908A1002808A0006C
:1014340008007708F1007608F0000A168A11882758
:101444000A128A15E830F0000330F1000A168A11F6
:101454005D270A128A15831203139F149F18302ADA
:10146400831603131E08FA00FB017A088312031380
:10147400A6007B08A7001E080339FA00FB017A08BE
:10148400A0007B08A100652A2608A2002708612A7B
:101494002608003EA20027080318013E013E612AE7
:1014A4002608003EA20027080318013E023E612AD6
:1014B4002608003EA20027080318013E033EA300AD
:1014C400A401A501782A2108003A03196A2A782A76
:1014D4002008003A0319462A013A03194A2A033A12
:1014E4000319522A013A03195A2A782A2508F900BD
:1014F4002408F8002308F7002208F600080000304A
:10150400F9000030F8000030F7006430F600831270
:101514000313881008107008870008150130F200C2
:101524000030F3000030F4000030F5007208F602D9
:101534007308031C730F9F2AA02AF7027408031C64
:10154400740FA52AA62AF8027508031C750FAB2A86
:10155400AC2AF902760A031D902A770A031D902A01
:10156400780A031D902A790A031D902A8312031313
:1015740008110030F9000030F8000030F700643042
:10158400F6000130F2000030F3000030F4000030C7
:10159400F5007208F6027308031C730FD22AD32ACB
:1015A400F7027408031C740FD82AD92AF8027508A4
:1015B400031C750FDE2ADF2AF902760A031DC32AEB
:1015C400770A031DC32A780A031DC32A790A03195B
:1015D4000800C32A2F3083160313850083120313D4
:1015E4008501831603138601831203138601831670
:1015F40003138701831203138701831603138801DE
:1016040083120313880104308316031389008312A1
:10161400031389010F3083160317880010308900E3
:101624000A128A15A3200A128A150A128A155C2343
:101634000A128A157930831603136E06031D3D2B97
:1016440083120313091D3D2B0919262B0A128A152F
:101654006A200A128A15793083120313E800680895
:1016640083160313EA006E3083120313E80068083C
:1016740083160313EE007930831603136B06031DE0
:10168400482B0A128A11F4210A128A1583160313AD
:101694006808690403191C2B6E306C06031D1C2B8F
:1016A40079306D06031D1C2B0A128A152F250A1288
:1016B4008A151C2B0130FA000030FB000130FC00BD
:1016C4000030FD000A128A156C210A128A151E3098
:1016D4000A168A11A0270A128A150130FA0000306E
:1016E400FB000630FC000030FD000A128A156C2154
:1016F4000A128A152E300A128A1105200A128A1536
:101704000130FA000030FB000C30FC000030FD001A
:101714000A128A156C210A128A152E300A128A11AD
:1017240005200A128A150130FA000030FB0012303D
:10173400FC000030FD000A128A156C210A128A1579
:101744002E300A128A1105200A128A150130FA0075
:101754000030FB001430FC000030FD000A128A1532
:101764006C210A128A1530300A168A11A0270A122F
:101774008A150230FA000030FB000130FC00003012
:10178400FD000A128A156C210A128A151B300A16EA
:101794008A11A0270A128A150230FA000030FB00D1
:1017A4001130FC000030FD000A128A156C210A1267
:1017B4008A150D300A168A11A02708008312031314
:1017C4003008F3002F08F2002E08F1002D08F00075
:1017D4000030F7000030F6000030F5006430F4000B
:1017E4000A128A15E1200A128A1573088312031358
:1017F400BA007208B9007108B8007008B700003068
:10180400A3000030A2000330A100FF30A000300884
:10181400F3002F08F2002E08F1002D08F00000302C
:10182400F7000030F6000030F5006430F4000A12CE
:101834008A15E1200A128A15730883120313A7007C
:101844007208A6007108A5007008A4000A128A157F
:10185400BB210A128A15831203133108840020085D
:1018640083138000840A210880000030F3000030D4
:10187400F2000330F100FF30F0003A08F7003908B5
:10188400F6003808F5003708F4000A128A152021FA
:101894000A128A15710883120313BC007008BB0076
:1018A4000030A3000030A2000330A100FF30A000EC
:1018B4000A30F2000030F3003C08F1003B08F0006D
:1018C4000A168A11BC270A128A1570088312031398
:1018D400B3007108B400B501B6013608A700350895
:1018E400A6003408A5003308A4000A128A15BB21F7
:1018F4008312031332088400200883138000840AAF
:10190400210880000800831203132808AC0029086A
:10191400AD00AE01AF012708F3002608F200250848
:10192400F1002408F0002308F7002208F60021083B
:10193400F5002008F4000A128A15E1200A128A151B
:10194400700883120313B0007108B1007208B2006A
:101954007308B3000A300310B30CB20CB10CB00C12
:10196400FF3E031DAD2C3008AC0731080318310FBE
:10197400BC2CBD2CAD0732080318320FC22CC32C6B
:10198400AE0733080318330AAF072A0884002C086B
:1019940083138000840A2D088000840A2E088000A6
:1019A400840A2F0880002708F3002608F20025087F
:1019B400F1002408F0002308F7002208F6002108AB
:1019C400F5002008F4000A128A15E1200A128A158B
:1019D400FF30700583120313B40003307105B500A2
:1019E40000307205B60000307305B7003708F30005
:1019F4003608F2003508F1003408F0000030F70032
:101A04000030F6000030F5000A30F4000A128A159E
:101A1400E1200A128A15700883120313AC007108BE
:101A2400AD007208AE007308AF000A300310AF0CAB
:101A3400AE0CAD0CAC0CFF3E031D182D2B0884001E
:101A44002C0883138000840A2D088000840A2E0841
:101A54008000840A2F0880000800831203130C1CE2
:101A64002F2D0C100030E0000030E1000130E200C6
:101A74000030E3006B08A0006C08A100A201A301E0
:101A84000030A7000030A600C330A5005030A400E9
:101A94000A128A15BB210A128A158312031320091C
:101AA400E4002109E5002209E6002309E700E40A2D
:101AB4000319E50A0319E60A0319E70A6408E007AB
:101AC40065080318650F672D682DE107660803187C
:101AD400660F6D2D6E2DE20767080318670AE3078A
:101AE400630883160313E100831203136208831649
:101AF4000313E00083120313610883160313DF004A
:101B040083120313600883160313DE005E08831236
:101B14000313E000831603135F0883120313E10029
:101B240083160313600883120313E200831603135E
:101B3400610883120313E30008300310E30CE20C82
:101B4400E10CE00CFF3E031D9F2D60088F008316FF
:101B540003135E08831203138E00013083160317E8
:101B6400BC07003003180130BD07003003180130F2
:101B7400BE07003003180130BF073F08031DCE2DF8
:101B84003E08031DCE2D3D08031DCE2D0A303C0218
:101B9400031DCC2D031C08000A128A1120210030D9
:101BA40083160317BF000030BE000030BD000030B4
:101BB400BC000800831203133208DE003108DD0084
:101BC4003008DC002F08DB0047308400A030B3006D
:101BD4000408B4000A30B5003308840083170008F1
:101BE400B600B30A34088400831336088000B40AAC
:101BF400B50BEE2D373084009030B3000408B400E8
:101C04001030B5003308840083170008B600B30A07
:101C140034088400831336088000B40AB50B042EFC
:101C2400DB2F0030F3000130F2008630F100A030E9
:101C3400F0003208F7003108F6003008F5002F08EC
:101C4400F4000A128A1520210A128A1573088312D5
:101C54000313DE007208DD007108DC007008DB008D
:101C64000030A3000030A2002730A1001030A000F3
:101C74005E08A7005D08A6005C08A5005B08A40038
:101C84000A128A15BB210A128A158312031321082A
:101C9400D2002008D1005108473E84008313000875
:101CA4000A128A1105200A128A150030F300003046
:101CB400F2002730F1001030F000831203133208D1
:101CC400F7003108F6003008F5002F08F4000A1276
:101CD4008A1520210A128A15730883120313DE0061
:101CE4007208DD007108DC007008DB000030A3001E
:101CF4000030A2000330A100E830A0005E08A70075
:101D04005D08A6005C08A5005B08A4000A128A15F9
:101D1400BB210A128A15831203132108D400200858
:101D2400D3005308473E8400831300080A128A1123
:101D340005200A128A150030F3000030F200033047
:101D4400F100E830F000831203133208F700310881
:101D5400F6003008F5002F08F4000A128A15202135
:101D64000A128A15730883120313DE007208DD0059
:101D74007108DC007008DB000030A3000030A20012
:101D84000030A1006430A0005E08A7005D08A60032
:101D94005C08A5005B08A4000A128A15BB210A127C
:101DA4008A15831203132108D6002008D50055088C
:101DB400473E8400831300080A128A1105200A1280
:101DC4008A150030F3000030F2000030F100643076
:101DD400F000831203133208F7003108F6003008CC
:101DE400F5002F08F4000A128A1520210A128A1518
:101DF400730883120313DE007208DD007108DC002F
:101E04007008DB000030A3000030A2000030A10005
:101E14000A30A0005E08A7005D08A6005C08A500C3
:101E24005B08A4000A128A15BB210A128A158312C0
:101E340003132108D8002008D7005708473E840020
:101E4400831300080A128A1105200A128A15003029
:101E5400F3000030F2000030F1000A30F000831289
:101E640003133208F7003108F6003008F5002F0894
:101E7400F4000A128A1520210A128A1571088312A5
:101E84000313DA007008D9005908473E840083130D
:101E940000080A128A1105200800831203135B0844
:101EA400B3005C08B4005D08B5005E08B6000C30F1
:101EB4000310B60CB50CB40CB30CFF3E031D5A2F23
:101EC4003408D4003308D3005308373E8400831306
:101ED40000080A128A1105200A128A15FF3083129B
:101EE40003132F05DB000F303005DC000030310513
:101EF400DD0000303205DE005B08B3005C08B4008E
:101F04005D08B5005E08B60008300310B60CB50CC9
:101F1400B40CB30CFF3E031D872F3408D6003308DE
:101F2400D5005508373E8400831300080A128A112D
:101F340005200A128A15FF30831203132F05DB00D4
:101F440000303005DC0000303105DD0000303205A2
:101F5400DE005B08B3005C08B4005D08B5005E08F1
:101F6400B60004300310B60CB50CB40CB30CFF3E31
:101F7400031DB42F3408D8003308D7005708373E60
:101F84008400831300080A128A1105200A128A1594
:101F94000F30831203132F05D90000303005DA0007
:101FA4005908373E8400831300080A128A11052059
:101FB4000800831203132E08003A0319E22FFF2F9F
:101FC4002D08013A0319292F033A0319E32E013A84
:101FD40003199D2E073A0319572E013A0319132E9C
:101FE400033A0319CA2F013A03199D2F0F3A031913
:0C1FF400702F013A03194F2FFF2F080037
:102EA20079346E346E34793464008001840A040605
:102EB200031900340406562F0130F0020030031CBF
:102EC200F103F102700A031D5D2F710A0319080054
:102ED2005D2F831603136808690403190800E801CB
:102EE200E901803083120313900008007E088A00F3
:102EF2007F08820077270A168A118000840A040854
:102F02007D0603190034FF0A0319FE0A7B2F71089C
:102F1200F3007008F2000310F20DF30D0310F20D2E
:102F2200F30D7208F4007308F500740881388312F7
:102F320003139F008030831603139F000800FA00DA
:102F42007A0884000A128A1500200A168A11003AA9
:102F5200031908007A0884000A128A1500200A164A
:102F62008A110A128A1105200A168A110130F90003
:102F72007908FA07A12FF401F501701CC62F720817
:102F8200F4070318F50A7308F50701300310F20D70
:102F9200F30DFF3E031DC72F01300310F10CF00C9F
:102FA200FF3E031DCE2F70087104031DBE2F75084E
:102FB200F1007408F000080083120313101EE42FBE
:102FC20083160317441483120313901EEB2F8316E8
:102FD2000317C41483160317440AF0008312031361
:102FE2006C08F2006B08F100F92F0310F10DF20DDD
:0E2FF200F00BF62F7108EB007208EC000800DF
:00000001FF
